:020000040000FA
:0600000047EF09F01200B9
:06002A000100A612000017
:0800300086000000060000003C
:08003800040120511F0B010817
:1000400001E0EED02051600BE842E842E842E8428D
:10005000E842010801E0E4D0245103E0240501E076
:10006000DFD02151230A01E1C5D0010A01E1AFD05F
:10007000030A01E19ED0010A25E0240A22E0070AD2
:100080001FE0010A1CE0030A11E0010A01E0C8D0E8
:100090000101030EF96F0101740EFA6F000EFB6F80
:1000A00000018D930101080EFE6FBAD00101030E0D
:1000B000F96F0101740EFC6F000EFD6FB1D0B0D06E
:1000C000AFD0AED00101030EF96F0101680EFC6FD5
:1000D000000EFD6F106A1B0E116EB70E126E136AC2
:1000E00010C004F011C005F012C006F013C007F0F4
:1000F00068C009F069C00AF06AC00BF06BC00CF070
:10010000CFEC08F004C070F005C071F006C072F0CA
:1001100007C073F000017007000E715B725B735BC8
:1001200071C010F072C011F073C012F00001136AB8
:100130001050B06E00017051AF6E080EE66EE66AA8
:10014000680EE66E000EE66EE66A3D0EE66EE66A44
:10015000B2EC07F0F56E070EE15EF550000928E0FD
:10016000F66A3D0EF76EF86AA69CA684A688F29EF3
:10017000550EA76EAA0EA76EA682F28E080EE66E28
:10018000E66A680EE66E000EE66EE66A3D0EE66E04
:10019000E66AF4EC07F0F56E070EE15EF550A69CFA
:1001A000A684F29E550EA76EAA0EA76EA682F28EA8
:1001B00037D00101030EF96F0101680EFA6F000ECE
:1001C000FB6F00018D930101070EFE6F29D0010125
:1001D000030EF96F22C46FF000016F51020B02E0B1
:1001E000818001D081906F51010B02E0818201D0AA
:1001F000819216D00101030EF96F0401221D01E165
:10020000231D04E1AB9E949E829E09D022512311AE
:1002100003E1AB8E948E03D0AC86AC8AAD6A00D07D
:100220001200948E949C9390939281908192240ECC
:10023000AC6E900EAB6E080EB86EE66EE66AE66ABD
:100240003D0EE66EE66A680EE66E000EE66ED1ECD6
:1002500007F0F56E070EE15EF550E86800016819D9
:1002600008E1E868691905E1E8686A1902E1E868E7
:100270006B1909E1686B4B0E696F6A6B6B6B6C6B8A
:100280006D6B080E6E6F106A1B0E116EB70E126E3C
:10029000136A10C004F011C005F012C006F013C0BC
:1002A00007F068C009F069C00AF06AC00BF06BC0C3
:1002B0000CF0CFEC08F004C070F005C071F006C07F
:1002C00072F007C073F000017007000E715B725B83
:1002D000735B71C010F072C011F073C012F00001B6
:1002E000136A1050B06E00017051AF6E616B606B9D
:1002F0001A0E726E1E0E736E0401300E166F040E0F
:10030000176F400E146F0401196F380E1A6F040E28
:100310001B6F880E186F0401780E1E6F040E1F6F7E
:10032000400E1C6F1200D9CFE6FFE1CFD9FF0001CC
:10033000606B040118BF30D0FC0EDBCF10F01951F8
:10034000D880105403E2FC0E19C4DBFF0001606B7F
:10035000FC0EDB50605D19E26051EA6A380FE96E0D
:10036000040EEA22EF50E66E6051E76EFD0EDBCF21
:10037000E9FFFE0EDBCFEAFFE750E926000EEA2296
:10038000E552E750EF6E602BE3D70401400E196F82
:100390001817187D880E18130001605100D0E5521F
:1003A000E7CFD9FF1200D9CFE6FFE1CFD9FF000197
:1003B00061510CE1FD0EDBCF62F0FE0EDBCF63F08E
:1003C000FC0EDBCF66F0676B010E616FE552E7CF85
:1003D000D9FF1200D9CFE6FFE1CFD9FFE6520001E5
:1003E000615101E02FD0DF6ADF2ADF50106E116A01
:1003F000FF0E101801E1115001E10BD0FD0EDBCF13
:10040000E9FFDB2AFE0EDBCFEAFF01E3DB2AEF5038
:10041000EBE1DF50106E116AD950FD0FE96EFF0E4F
:10042000DA20EA6E1050EE5E1150ED5AFD0EDBCF71
:1004300062F0FE0EDBCF63F0DFCF66F00001676B8A
:10044000010E616FE552E552E7CFD9FF1200D9CF17
:10045000E6FFE1CFD9FFE6520001615101E030D063
:10046000DF6ADF2ADF50106E116AFF0E101801E1FB
:10047000115001E10CD0FD0EDBCFF6FFDB2AFE0EA2
:10048000DBCFF7FF01E3DB2A0800F550EAE1DF509C
:10049000106E116AD950FD0FE96EFF0EDA20EA6E78
:1004A0001050EE5E1150ED5AFD0EDBCF62F0FE0EE5
:1004B000DBCF63F0DFCF66F00001010E676F616F85
:1004C000E552E552E7CFD9FF1200D9CFE6FFE1CFE1
:1004D000D9FFE65204011CBF6BD0030E0001615D21
:1004E00001E1616B615101E163D0020E615D06E1E2
:1004F00004011D6B0001030E616F54D0610552E1D0
:10050000400E106E116A6651105C000E115803E225
:10051000400EDF6E02D066C0DFFFDFCF1DF4DF507C
:10052000665D666F780E646F040E656F670515E192
:10053000DF5012E062C0F6FF63C0F7FF0800F5501D
:1005400064C0E9FF65C0EAFFEF6E642B000E65230F
:10055000622B6323DF06ECD713D0DF5011E062C0BB
:10056000E9FF63C0EAFFEF5064C0E9FF65C0EAFF3E
:10057000EF6E642B000E6523622B6323DF06EDD73D
:10058000665110E104011D51106E116A400E1018E1
:1005900001E1115004E10001020E616F03D000017E
:1005A000030E616F400E04011C171C7D880E1C1386
:0A05B000E552E552E7CFD9FF120033
:0605BA0004012051600B5A
:1005C000E842E842E842E842E842000901E055D04A
:1005D0002151070A51E00B0A4FE0070A40E0010AE7
:1005E0002CE00B0A28E0020A26E0030A22E0080AAF
:1005F00012E0010A0EE00F0A0AE0030A01E03CD013
:100600000101010EF96F0001040E8C6F36D036D84F
:1006100034D090D832D00101010EF96F01018E0E55
:10062000FA6F000EFB6F00018D930101010EFE6F4A
:1006300024D0A8D822D0F6D820D00101010EF96F1D
:10064000040124510101FA6FFB6B8F0EFA27000E93
:10065000FB2300018D930101010EFE6F0ED00101FD
:10066000010EF96F04012451EA6A8F0FE96E000E42
:10067000EA2222C4EFFF01D000D01200800E040154
:10068000205D57E12351030A34E0010A10E0030A18
:1006900001E04DD00101010EF96F0101320EFA6F38
:1006A000100EFB6F120E0101FE6FFF6B40D00101B7
:1006B000010EF96F04012251F66EF76AD890F636F2
:1006C000F736F30EF626100EF7220900F5CFFAF1F1
:1006D0000A00F5CFFBF1020E0101F76AFA25F66E6A
:1006E000FB51F7220900F5CFFEF10A00F5CFFFF12B
:1006F0001ED00101010EF96F04012251F66EF76A56
:10070000D890F636F736F70EF626100EF7220900C7
:10071000F5CFFAF10A00F5CFFBF1FAC1F6FFFBC104
:10072000F7FF0800F5500101FE6FFF6B00D00001DC
:100730008D8312000101010EF96F0F0EE66E710E2E
:10074000E66E0F0EE66E9DEC07F0E552E552E552BF
:10075000010EE66E8F0EE66E000EE66E9DEC07F063
:10076000E552E552E55222C48EF00401225104E123
:100770000001050E8C6F05D00001060E8C6F11EC88
:1007800001F012000401286B296B040120511F0B9A
:10079000020A16E0030A10E0010A01E035D0010167
:1007A000010EF96F80A402D00401288100018DA1FF
:1007B00002D00401288328D00101010EF96F24D052
:1007C0000101010EF96F040124510F0B080DF350C4
:1007D000116A000F106E040E11222451800B01E0EB
:1007E000010E040DF35001011024FC6F000E1120C6
:1007F000FD6FFCC1E9FFFDC1EAFFEF50040B03E010
:100800000401010E286F00D00101F9050AE1010180
:10081000280EFA6F040EFB6F00018D930101020E8A
:10082000FE6F12000401220510E120511F0B000988
:100830000CE10101010EF96F030E0401215D03E1DA
:1008400000018D8102D000018D91040122513AE115
:1008500020511F0B020836E124510F0B000932E032
:100860000101010EF96F040124510F0B080DF35023
:10087000116A000F106E040E11222451800B01E04A
:10088000010E040DF35001011024FC6F000E112025
:10089000FD6F030E0401215D07E1840EFCC1E9FF39
:1008A000FDC1EAFFEF6E0ED024AF06D0FCC1E9FF18
:1008B000FDC1EAFFEF6A06D0880EFCC1E9FFFDC169
:0608C000EAFFEF6E1200DA
:0A08C6006C500BE1040100513C0BE3
:1008D000E842E8420D0802E108D801D03CD804D033
:1008E000040E6C5C01E147D81200D9CFE6FFE1CFDE
:1008F000D9FFE6520101F86BF96BFE6BFF6BDDEC83
:1009000002F0DF6ADF50106E116A010E105C000EFB
:1009100011581BE20101F95101E017D0F76ADF34E9
:10092000FE0BF736F66EFD0EF626100EF7220900C6
:10093000F5CF10F00800F5CF11F004D011C0FAFF88
:100940001050F96EFBDFDF2ADDD7E6D8E552E5521D
:10095000E7CFD9FF1200020E0101F85D0AE19DD830
:10096000040100BD03D0C80E006F02D0880E006FD6
:1009700001D018D91200040E00018C5D0CE122C4D4
:100980006EFF6E50000804E20001050E8C6F03D06C
:100990000001030E8C6F0101F8050CE10ED8040173
:1009A00004BD04D00401C80E046F03D00401880EF6
:1009B000046F02D0F7D800001200D9CFE6FFE1CFD4
:1009C000D9FF020EE1260101080EFE5D000EFF595F
:1009D00005E2FEC1DEFFFFC1DDFF03D0080EDE6EC3
:1009E000DD6A040104930491010EDB500413DFCF90
:1009F00005F4000EDB500101FE5F010EDB50FF5BD2
:100A0000280EFC6F040EFD6F00018DA31ED0D9CF00
:100A1000E9FFDACFEAFFEE50ED1016E0FAC1F6FF7B
:100A2000FBC1F7FF0800F550FCC1E9FFFDC1EAFF7B
:100A3000EF6E0101FC2B000EFD23FA2BFB23DF06DA
:100A4000010E01E2DB06E3D71CD0D9CFE9FFDACFF4
:100A5000EAFFEE50ED1015E0FAC1E9FFFBC1EAFF35
:100A6000EF50FCC1E9FFFDC1EAFFEF6E0101FC2B75
:100A7000000EFD23FA2BFB23DF06010E01E2DB064D
:100A8000E4D7F56E020EE15C02E2E16AE552E16E46
:100A9000F550E552E7CFD9FF1200D9CFE6FFE1CFFD
:100AA000D9FF020EE126030E04010015E76E010EC8
:100AB000E7CFDBFF01C4DFFFDE500101FE27DD5081
:100AC000FF23280EFA6F040EFB6FD9CFE9FFDACFB0
:100AD000EAFFEE50ED1014E0FAC1E9FFFBC1EAFFB6
:100AE000EF50FCC1E9FFFDC1EAFFEF6EFC2B000EE9
:100AF000FD23FA2BFB23DF06010E01E2DB06E5D71F
:100B0000F56E020EE15C02E2E16AE552E16EF5503B
:100B1000E552E7CFD9FF12000101F9510CE10401C0
:100B2000080E016F200E026F040E036F840E006F1B
:100B30000401046F35D0040120AF22D00101FE5121
:100B40000401265D0101FF510401275904E226C476
:100B5000FEF127C4FFF131DF0101010EF86F04013E
:100B6000080E016F200E026F040E036F800E006FDF
:100B70000401280E066F040E076FC80E046F10D014
:100B80000101020EF86F0401056BC80E046F040129
:100B9000080E016F280E026F040E036FC80E006F5F
:100BA0006D9812000101F86B0401080E016F200E10
:100BB000026F040E036F880E006F0401046B1200B5
:100BC000D9CFE6FFE1CFD9FF020EE126FC0E8B164E
:100BD0009416938447D8DE6ADD6ADECF10F0DDCF4D
:100BE00011F0D890115004E6400E105C000E115820
:100BF0000EE2DECFE9FFDDCFEAFF300EE926010E7F
:100C0000EA22EF6ADF2A010E01E3DB2AE6D7DE6A79
:100C1000DD6ADECF10F0DDCF11F0D890115004E680
:100C2000400E105C000E11580EE2DECFE9FFDDCF62
:100C3000EAFF700EE926010EEA22EF6ADF2A010EB2
:100C400001E3DB2AE6D70101B06BF26BF56E020E11
:100C5000E15C02E2E16AE552E16EF550E552E7CF70
:100C6000D9FF1200948E949C240EAC6E900EAB6E45
:100C7000710EAF6E020EB06E080EB86E1200A3D8E1
:100C8000060E00018C5D03E36D50020B01E001D004
:100C900001D812000001865187113CE1400EE66E3A
:100CA000300EE66E010EE66E93EC01F0E552E55271
:100CB000E55200092FE0000160510101F46FF56B6E
:100CC000F66BF76BF751F519E8AE02D0F53504D0A5
:100CD000F451F65DF551F75915E2300EF625E96E3F
:100CE000010EF721EA6EEF50E66EB20EF625E96EC0
:100CF000010EF721EA6EE552E750EF6EF62B000E7B
:100D0000F723E0D7010E0001866F876BF4C1F2F183
:100D10000101F36B9EAA1ED0F3EC08F0E66E010110
:100D2000B051EA6A700FE96E010EEA22E552E7500F
:100D3000EF6EB02BB051EA6A700FE96E010EEA2235
:100D4000EF6A010E0001886F896B200E8A6F4E0ECC
:100D50008B6F8B820001615114E10101B0510008D9
:100D600010E2B0C1E6FF700EE66E010EE66ED3EC47
:100D700001F0E552E552E5520001886B896B0101F3
:100D8000B06B0001865187111DE0AC50020B1AE0D8
:100D90000101F351EA6AB20FE96E010EEA22EF5047
:100DA000E66E30EC09F0E5520101F32BF251F35DF0
:100DB00003E10001866B876B0001200E8A6F4E0EE7
:100DC0008B6F8B8212000001000ED8808A55000EB6
:100DD0008B5503E28A07000E8B5B6DA204D08A510B
:080DE0008B1101E18B70120080
:080DE8006DA60FD802D06DB614
:100DF00013D800018C0508E16DBA06D0686A696AEB
:100E000069806988020E8C6F12006D6A696A6D864E
:100E10000001010E8C6F12006D6A696A00018C6B13
:100E200012000CEF07F000018C5101E13AD068503C
:100E3000040B04E06950040B01E03CD86DB231D0E2
:100E40006850010B04E06950010B01E054D8685070
:100E5000100B04E06950100B01E024D86850400BDF
:100E600004E06950400B01E03BD86850200B04E0DF
:100E70006950200B01E036D86850020B04E069503D
:100E8000020B01E036D8030E00018C5D01E209D0AF
:100E90006850080B06E06950080B03E063EC04F0AF
:100EA00068961200698468986D82A19AA08A0300EE
:100EB000A09A12006D9269946894120000018DA1AD
:100EC0000ED0F8DF6D840001080E906F070E916F51
:100ED0009007000E915B90519111FAE16D94120010
:100EE000689C120070A003D0D2EC05F07090689A54
:100EF0001200689212006A6A686A9F0E6B6E7B0E1F
:100F0000696E6E6A0F0EE66E710EE66E0F0EE66E7D
:100F100014D8E552E552E552160E706E68A602D05E
:100F20006896FCD76D98D2EC05F000018D91000118
:100F30008E6B0001030E8C6F1200D9CFE6FFE1CF5C
:100F4000D9FFFD0EDBCFE9FFFE0EDBCFEAFFFC0E83
:100F5000DB5004E0EE6AFC0EDB06F9D7E552E7CF82
:040F6000D9FF1200A3
:0C0F6400FD0EE3CFF6FFFE0EE3CFF7FF1B
:100F7000FF0EE3CFF8FFFB0EE3CFE9FFFC0EE3CF5C
:100F8000EAFFF90EE35003E1FA0EE35009E0F90E2F
:100F9000E30602E2FA0EE3060900EE50F55CF1E02A
:100FA0001200FB0EE3CFF6FFFC0EE3CFF7FFFD0EC2
:100FB000E3CFF8FFFE0EE3CFE9FFFF0EE3CFEAFF3A
:100FC000E9CFF3FFEACFF4FFF90EE35003E1FA0EA5
:100FD000E35009E0F90EE30602E2FA0EE306090027
:100FE000F5CFEEFFF1D71200FD0EE3CFF6FFFE0EB8
:100FF000E3CFF7FFFF0EE3CFF8FFFB0EE3CFE9FFF0
:10100000FC0EE3CFEAFFF90EE35003E1FA0EE350E2
:1010100009E0F90EE30602E2FA0EE306EECFF5FF71
:101020000D00F1D7FD0EE124E96EFF0EE220EA6E1D
:021030001200AC
:0E1032001201000202000008D8040A000000AB
:10104000010200010902430002010080320904008C
:10105000000102020100052400100104240202051F
:10106000240600010524010001070582030800028F
:1010700009040100020A0000000705030240000005
:10108000070583024000000403090434034D00698E
:1010900000630072006F0063006800690070002048
:1010A0000054006500630068006E006F006C006F04
:1010B0000067007900200049006E0063002E0034B4
:1010C000034300440043002000520053002D00322F
:1010D0000033003200200045006D0075006C006197
:1010E00000740069006F006E002000440065006D10
:0F10F000006F004410441087108B10BF103800A1
:101100002A0EF66E000EF76E000EF86E0001090052
:10111000F550816F0900F550826F03E1816701D0BE
:101120003DD00900F5507C6F0900F5507D6F090036
:10113000F5507E6F09000900F550E96E0900F55081
:10114000EA6E090009000900F5507F6F0900F550AB
:10115000806F09000900F6CF83F0F7CF84F0F8CF55
:1011600085F07CC0F6FF7DC0F7FF7EC0F8FF000170
:101170007F5302E1805307E00900F550EE6E7F07D0
:10118000F8E28007F9D783C0F6FF84C0F7FF85C077
:0E119000F8FF00018107000E825BBFD712003E
:02119E00036AE2
:1011A000026A016A006A200EE76ED890043605369E
:1011B0000636073600360136023603360950005C23
:1011C0000A5001580B5002580C50035809E30950BB
:1011D000005E0A50015A0B50025A0C50035A042A5E
:0611E000E72EE4D7120027
:0A11E600D9CFE6FFDACFE6FFE1CF34
:1011F000D9FFE2CFDAFFE652F20E00019217ABAC54
:1012000003D09291ABB09281ABB49285ABB292878E
:10121000AE50DF6EDF50E552E552E5CFDAFFE7CFA3
:04122000D9FF1200E0
:0C12240047EF09F0120005D811D83FEC8C
:1012300006F0FCD712000F0EC1129284140E6F6ECE
:1012400000018C6B00018D6B00018E6BE0EF05F0EF
:10125000F4EC06F06FBE02D013EC07F065EF02F07D
:10126000D9CFE6FFDACFE6FFE1CFD9FFE2CFDAFF51
:10127000ACAC04D0AC90000192B3AC80FD0EDB505E
:0E128000AD6EE552E5CFDAFFE7CFD9FF1200E1
:02128E0011EE5F
:1012900000F021EE00F0F86A0F9C80EC08F015ECED
:0612A00009F0FDD7120069
:0612A60000000000000042
:020000040030CA
:0100000022DD
:010001000EF0
:010002001FDE
:010003001EDE
:0100050002F8
:010006008178
:0100080003F4
:0100090040B6
:01000A0003F2
:01000B006094
:01000C0003F0
:01000D0040B2
:00000001FF
