:020000040000FA
:0600000044EF01F01200C4
:020006000000F8
:08000800060EF66E000EF76E05
:10001000000EF86E0F010900F550056F0900F5504C
:10002000066F03E1056701D03DD00900F550006F70
:100030000900F550016F0900F550026F0900090031
:10004000F550E96E0900F550EA6E09000900090053
:10005000F550036F0900F550046F09000900F6CF51
:1000600007FFF7CF08FFF8CF09FF00CFF6FF01CF5A
:10007000F7FF02CFF8FF0F01035302E1045307E03B
:100080000900F550EE6E0307F8E20407F9D707CF31
:10009000F6FF08CFF7FF09CFF8FF0F010507000EA5
:0600A000065BBFD7120051
:0A00A600D9CFE6FFDACFE6FFE1CF85
:1000B000D9FFE2CFDAFFAD6AAC6AFD0EDBB0AD88E6
:1000C000DBA202D0AD8CAC8CDBB4AD8EDBA602D053
:1000D000AC8801D0AC8ADBB8AD84DBBAAC86DBACD3
:1000E00002D09D8A01D09D9ADBAE02D09D8801D0BE
:1000F0009D98FB0EDB50B06EFC0EDBCF03F003C00F
:1001000002F0036A02507F6EAD8AAC8E949C948E8E
:10011000AD50100B04E0AD50800B01E1948CE55222
:0A012000E5CFDAFFE7CFD9FF1200A8
:06012A0022D87F0EE66EF4
:10013000F1EC00F0E552700EE66ECDEC00F0E55209
:1001400081A008D083A203D08392839402D08382BB
:10015000839407D083A403D08394839202D08384B2
:100160008392640EE66E0CEC01F0E552E9D71200C2
:100170009B8C9592959483928394330EE66EE66AF7
:100180003C0EE66E53EC00F0E552E552E552EC0E03
:0A019000E66E23EC01F0E5521200C8
:06019A00D9CFE6FFDACF29
:1001A000E6FFE1CFD9FFE2CFDAFF0C0EBB12949449
:1001B0007950400B09E07950080B06E07694FD0E6B
:1001C000DB50776E768405D0CA94FD0EDB50CB6E83
:1001D000CA84E552E5CFDAFFE7CFD9FF1200949445
:0201E00012000B
:0E01E200D9CFE6FFDACFE6FFE1CFD9FFE2CFBB
:1001F000DAFFFD0EDB50FB0BCA6ECC6A9E92FD0E41
:10020000DBAE02D09D8201D09D92CA84E552E5CF3B
:08021000DAFFE7CFD9FF12006D
:08021800FF0EE350056EEF0E2E
:1002200001D0F30EE76EE72E13EF01F00C0E046E13
:10023000E76AE72E19EF01F0042E18EF01F0052E02
:0602400011EF01F01200B5
:0A024600D9CFE6FFDACFE6FFE1CFE3
:10025000D9FFE2CFDAFFFD0EDB507E6EE552E5CF2F
:08026000DAFFE7CFD9FF12001D
:08026800400EF36E00EE00F001
:100270000F0E01D81200EA6002D0EE6AFCD7F350EC
:08028000E9601200EE6AFCD7F0
:080288001EEE00F02EEE00F066
:10029000F86A019C04EC00F052EC01F095EC00F0DF
:0402A000FBD7120076
:0202A400120046
:00000001FF
