:020000040000fa
:080000000002040000000000f2
:020000040000fa
:10040000ef862000007f220000018800000000002d
:100410000c000700402e2000010020001100070002
:10042000000020000000e000020032000000020096
:100430000000000090020200000000000040da000e
:100440000000fe004440a900000020000000e00081
:100450000300320000002000a00188004440a800f2
:100460000000060091018800800078000000eb0089
:1004700015003700e280400032a0b4009101ba00bc
:10048000e280400032a0b4009102ba00e280400055
:1004900032a0b4000002eb00472bde00f507b200eb
:1004a000602ce10004003a000059eb008301e900f0
:1004b000fdff3e00040037006128e100010032002a
:1004c0000082eb00040007001101ba000200e00006
:1004d000e8ff3a00000006003159ba008301e90044
:1004e0000c0032002159ba008301e90008003200f3
:1004f0000400e00003003a00e280400032a0b400b3
:10050000f5ff370011d9ba008301e900faff3a007c
:100510008100e800e180400032a0b4000000060045
:020000040000fa
:020000040002f8
:04affc007f3f000093
:020000040000fa
:1000080000030000000300000003000000030000dc
:1000180000030000000300000003000000030000cc
:1000280000030000000300000003000000030000bc
:1000380000030000000300000003000000030000ac
:020000040000fa
:020000040000fa
:100520000200fa000000eb00000f780000f02f003e
:100530000016880005e1a8000421a9000481a80094
:1005400004a1a80004c1a9000441a90005a1a900b3
:10055000f00f2000101688000000eb00000f78005c
:100560000d0037009e0078000085200000804000cc
:10057000104078000000fb00101688000000eb001f
:100580000008880001088000f0312000808f5000b2
:10059000fcff36001e0fe800d00120009e0f100067
:1005a000f0ff34000000eb00101688000000eb00a4
:1005b0000008880001088000f0312000808f500082
:0805c000fcff3600e2ff3700ea
:020000040000fa
:1005c800500800001e00000002000000ff0808009c
:1005d800ff000000ff89890081000000ff80800083
:1005e80080000000ff808000800000007e81810084
:0805f8007e000000000000007d
:020000040000fa
:040600000000fe00f8
:00000001FF
