:020000040000FA
:0C000000000073EF01F0000000000000A1
:02002A000000D4
:04002C00929489849D
:100030002C6AF0EC00F0F0EC00F0F0EC00F0979C93
:100040008E9CF0EC00F08E8CC5EC00F0A7EC00F07C
:10005000B6EC00F02C9C2C9EE1EC00F0F0EC00F0F3
:100060003C0E286E47EC00F0F0EC00F00C0E286E11
:1000700047EC00F0F0EC00F0010E286E47EC00F0C9
:10008000F0EC00F0060E286E47EC00F012002C9CFD
:100090002C9EE1EC00F0D2EC00F00000000000002B
:1000A0002C8CE1EC00F000000000000000000000DB
:1000B00000000000000000002C9CE1EC00F01200A9
:1000C000FBEC00F0FBEC00F01200010E286E26D8CD
:1000D0001200800E286E22D81200C00E286E1ED884
:1000E0001200EEDF2C9C2C8EE1EC00F0D2EC00F044
:1000F00000000000000000002C8CE1EC00F000008B
:10010000000000000000000000002C9C2C9EE1EC90
:1001100000F02850AD6EACA2FED712002C9C2C9E95
:10012000E1EC00F0CDDFD2EC00F0000000000000B8
:1001300000002C8CE1EC00F000000000000000004A
:10014000000000002C9C2C9EE1EC00F01200899431
:10015000400EC96ECCEC00F0000EC96ECCEC00F085
:10016000000EC96ECCEC00F0898412008994400E18
:10017000C96ECCEC00F0010EC96ECCEC00F0000EA4
:10018000C96ECCEC00F089841200949A9496220EE9
:10019000C66EC78C9E9612009EA6CCEF00F09E966F
:1001A000C95012008994400EC96ECCEC00F0130EB9
:1001B000C96ECCEC00F02850C96ECCEC00F08984FC
:1001C00012008994400EC96ECCEC00F0120EC96E7C
:1001D000CCEC00F02C50C96ECCEC00F089841200FD
:1001E00000000000000000002A2EF0EF00F02B2E8F
:1001F000F0EF00F012002A2EFBEF00F02A2EFEEFA7
:1002000000F02A2E01EF01F02A2E04EF01F02A2E31
:1002100007EF01F02A2E0AEF01F02A2E0DEF01F070
:100220002A2E10EF01F02A2E13EF01F0120017EF23
:1002300001F0202020566F6C746D6574657220206B
:1002400020202020202020202020202020202020AE
:100250002020202054656D70657261747572652070
:1002600020202020202020436C6F636B2020202042
:1002700020205242303D4E6F77205241353D4E6531
:1002800078744D6963726F636869702050494344A4
:10029000454D205049433138204578706C6F726568
:1002A00072205242303D4D656E75205241353D53AE
:1002B00065745242303D202B2B205241353D202D7C
:1002C0002D3E202020524230203D20457869742068
:1002D0002020566F6C7473203D2020202020202089
:1002E0002020202020209B8C16EC00F00E0EC16EEA
:1002F000A40EAC6EFF0EAF6E900EAB6E9380928A22
:10030000500E006E6BEC03F0600E006E8CEC03F090
:10031000CBEC03F080AA8AEF01F081A08DEF01F011
:10032000ADEC03F0ADEC03F0ADEC03F080AAFED72A
:10033000000E006E6BEC03F0400E006E8CEC03F0D0
:1003400081A02BD080BAFCD7ADEC03F0ADEC03F06C
:10035000ADEC03F080AAFED7200E006E6BEC03F02C
:10036000400E006E8CEC03F081A099D080BAFCD7CF
:10037000ADEC03F0ADEC03F0ADEC03F081A0FED7E3
:10038000300E006E6BEC03F0400E006E8CEC03F050
:1003900081A0FFD080BAFCD7BDD7CBEC03F081A001
:1003A000FED7C26AC2800E0EC16EBA0EC06EA00E1B
:1003B000006E6BEC03F0C282C2B2FED7C3CF24F052
:1003C000C4CF23F0310E266E256A92EC04F01FC0D4
:1003D00017F020C016F0640E196EAFEC04F0165042
:1003E0000D6E17500E6E60EC04F06DEC00F01150C5
:1003F00045EC04F00750286E71EC00F02E0E286ECC
:1004000071EC00F0125045EC04F00750286E71ECCE
:1004100000F0135045EC04F00750286E71EC00F02A
:10042000560E286E71EC00F0200E286E71EC00F074
:10043000200E286E71EC00F0200E286E71EC00F09A
:10044000520E286E71EC00F0420E286E71EC00F036
:10045000300E286E71EC00F03D0E286E71EC00F04D
:10046000450E286E71EC00F0780E286E71EC00F0ED
:10047000690E286E71EC00F0740E286E71EC00F0BD
:10048000200E286E71EC00F0200E286E71EC00F04A
:100490000D0EAD6EACA2FED781A056D78CD7CBEC9B
:1004A00003F081A0FED7C280C2840D0EC16EBA0EC9
:1004B000C06EC282C2B2FED7C3CF24F0C4CF23F035
:1004C000310E266E256A92EC04F01FC017F020C092
:1004D00016F0A00E175ED8A016060F0E165EC30EFD
:1004E000196EAFEC04F0175045EC04F069EC00F025
:1004F000540E286E71EC00F0650E286E71EC00F061
:100500006D0E286E71EC00F0700E286E71EC00F02C
:10051000200E286E71EC00F03D0E286E71EC00F09C
:10052000200E286E71EC00F03D0E286E71EC00F08C
:10053000200E286E71EC00F00950286E71EC00F06E
:100540000850286E71EC00F00750286E71EC00F036
:10055000430E286E71EC00F0200E286E71EC00F056
:10056000200E286E71EC00F0200E286E71EC00F069
:100570006DEC00F0900E006E8CEC03F00000ADEC22
:1005800003F081A001D095D72DEC03F048EC03F0E7
:10059000EFD6CBEC03F081A0FED70F0ECD6E0A6A2A
:1005A0000B6A0C6A9E90800ECF6ECE6A0A2A0A50A1
:1005B0003C08D8A40ED00B2A0A6A0B503C08D8A4D9
:1005C00008D00C2A0B6A0C500D08D8A402D0010EDA
:1005D0000C6E0C5045EC04F069EC00F00850286EED
:1005E00071EC00F00750286E71EC00F03A0E286EA6
:1005F00071EC00F00B5045EC04F00850286E71ECE3
:1006000000F00750286E71EC00F03A0E286E71EC85
:1006100000F00A5045EC04F00850286E71EC00F030
:100620000750286E71EC00F0200E286E71EC00F07F
:10063000200E286E71EC00F0200E286E71EC00F098
:10064000700E006E8CEC03F080AAC6D081A062D63A
:100650009EA024EF03F0A6D712009296C5EC00F0FE
:10066000898612008996030EC96ECCEC00F0000E4C
:10067000C96ECCEC00F01450C96ECCEC00F0000E4A
:10068000C96E9EA641EF03F09E96C950898612005E
:100690008996060EC96ECCEC00F08986F0EC00F06D
:1006A0008996020EC96ECCEC00F0000EC96ECCEC3F
:1006B00000F0000EC96ECCEC00F00950C96ECCEC15
:1006C00000F00850C96ECCEC00F00750C96ECCECBD
:1006D00000F08986120069EC00F0100E016E000E29
:1006E000F86E020EF76E320EF66E0050F626E86ACD
:1006F000F722F8220900F5CF28F071EC00F0012E66
:10070000F9D70A0EAD6EACA283EF03F00D0EAD6EFD
:10071000ACA288EF03F012006DEC00F0100E016E39
:10072000000EF86E020EF76E320EF66E0050F626D0
:10073000E86AF722F8220900F5CF28F071EC00F002
:10074000012EF9D70A0EAD6EACA2A4EF03F00D0E88
:10075000AD6EACA2A9EF03F01200C2EC03F0C2EC44
:1007600003F0C2EC03F0C2EC03F0C2EC03F0C2EC05
:1007700003F0C2EC03F0C2EC03F0C2EC03F0C2ECF5
:1007800003F01200FF0E026E830E036E022EFED7E0
:10079000032EFCD71200E0EC03F0E0EC03F0E0ECF9
:1007A00003F0E0EC03F0E0EC03F0E0EC03F0E0EC4D
:1007B00003F0E0EC03F0E0EC03F0E0EC03F01200F7
:1007C000FF0E026E036E050E046E022EFED7032E80
:1007D000FCD7042EFAD71200800E006E8CEC03F0CA
:1007E00080AAFED769EC00F081A0FED7ADEC03F043
:1007F00081A001D006D00C2A0C500D08D8A401D03D
:100800000C6A80AA10D00C5045EC04F00850286EF9
:1008100071EC00F00750286E71EC00F03A0E286E73
:1008200071EC00F0DDD780AAFED769EC00F0140E61
:10083000286E8EEC00F0140E286E8EEC00F0140E74
:10084000286E8EEC00F081A0FED7ADEC03F081A005
:1008500001D006D00B2A0B503C08D8A401D00B6A5B
:1008600080AA10D00B5045EC04F00850286E71ECB3
:1008700000F00750286E71EC00F03A0E286E71EC13
:1008800000F0D1D780AAFED78DD6096A086A076E14
:10089000640E075CD8A003D0076E092AF9D70A0EA8
:1008A000075CD8A003D0076E082AF9D70950300A90
:1008B000096E0850300A086E0750300A076E000CA7
:1008C0000D380F0BF00F106E1026E20F116E320F65
:1008D000136E0D500F0B112611261326E90F126E01
:1008E000122612260E380F0B122613261236133636
:1008F000131E13360E500F0B13261036070E0F6EF5
:100900000A0E12061326D8A0FCD711061226D8A06C
:10091000FCD710061126D8A0FCD70F061026D8A0A9
:04092000FCD7000CF4
:0C09240024502602F4CF20F0F3CF1FF087
:1009300023502502F4CF22F0F3CF21F024502502DA
:10094000F3502026F4502122E86A22222350260266
:10095000F3502026F4502122E86A222212001B6A5A
:10096000080E1E6E16341B3619501B5ED8B002D00E
:100970001B26D89016361E2EF5D71D6A080E1E6E41
:1009800017341B361D3619501B5E186A000ED8A08E
:10099000183C1D5ED8B008D019501B26186A000EEE
:1009A000D8B0183C1D26D89017361E2EE9D7120055
:020000040030CA
:0100010006F8
:0100020019E4
:010003001EDE
:010005008377
:010006008178
:00000001FF
